:020000040000fa
:080000000002040000000000f2
:020000040000fa
:0400080000030000f1
:020000040000fa
:04000c003a140000a2
:020000040000fa
:040010004c1400008c
:020000040000fa
:040014004214000092
:020000040000fa
:04001800541400007c
:020000040000fa
:04001c0000030000dd
:020000040000fa
:0400200000030000d9
:020000040000fa
:0400240000030000d5
:020000040000fa
:0400280000030000d1
:020000040000fa
:04002c0000030000cd
:020000040000fa
:0400300000030000c9
:020000040000fa
:040034005a1100005d
:020000040000fa
:0400380000030000c1
:020000040000fa
:04003c0000030000bd
:020000040000fa
:0400400000030000b9
:020000040000fa
:0400440000030000b5
:020000040000fa
:0400480000030000b1
:020000040000fa
:04004c0000030000ad
:020000040000fa
:0400500000030000a9
:020000040000fa
:0400540000030000a5
:020000040000fa
:0400580000030000a1
:020000040000fa
:04005c00000300009d
:020000040000fa
:040060000003000099
:020000040000fa
:040064000003000095
:020000040000fa
:040068000003000091
:020000040000fa
:04006c00780b00000d
:020000040000fa
:040070000003000089
:020000040000fa
:040074000003000085
:020000040000fa
:040078000003000081
:020000040000fa
:04007c00000300007d
:020000040000fa
:040080000003000079
:020000040000fa
:040084000003000075
:020000040000fa
:040088000003000071
:020000040000fa
:04008c00000300006d
:020000040000fa
:040090000003000069
:020000040000fa
:040094000003000065
:020000040000fa
:040098000003000061
:020000040000fa
:04009c00000300005d
:020000040000fa
:0400a0000003000059
:020000040000fa
:0400a4000003000055
:020000040000fa
:0400a8000003000051
:020000040000fa
:0400ac00000300004d
:020000040000fa
:0400b0000003000049
:020000040000fa
:0400b4000003000045
:020000040000fa
:0400b8000003000041
:020000040000fa
:0400bc00000300003d
:020000040000fa
:0400c0000003000039
:020000040000fa
:0400c4000003000035
:020000040000fa
:0400c8000003000031
:020000040000fa
:0400cc00000300002d
:020000040000fa
:0400d0000003000029
:020000040000fa
:0400d4000003000025
:020000040000fa
:0400d8000003000021
:020000040000fa
:0400dc00000300001d
:020000040000fa
:0400e0000003000019
:020000040000fa
:0400e4000003000015
:020000040000fa
:0400e8000003000011
:020000040000fa
:0400ec00000300000d
:020000040000fa
:0400f0000003000009
:020000040000fa
:0400f4000003000005
:020000040000fa
:0400f8000003000001
:020000040000fa
:0400fc0000030000fd
:020000040000fa
:0401000000030000f8
:020000040000fa
:0401040000030000f4
:020000040000fa
:0401080000030000f0
:020000040000fa
:04010c0000030000ec
:020000040000fa
:0401100000030000e8
:020000040000fa
:0401140000030000e4
:020000040000fa
:0401180000030000e0
:020000040000fa
:04011c0000030000dc
:020000040000fa
:0401200000030000d8
:020000040000fa
:0401240000030000d4
:020000040000fa
:0401280000030000d0
:020000040000fa
:04012c0000030000cc
:020000040000fa
:0401300000030000c8
:020000040000fa
:0401340000030000c4
:020000040000fa
:0401380000030000c0
:020000040000fa
:04013c0000030000bc
:020000040000fa
:0401400000030000b8
:020000040000fa
:0401440000030000b4
:020000040000fa
:0401480000030000b0
:020000040000fa
:04014c0000030000ac
:020000040000fa
:0401500000030000a8
:020000040000fa
:0401540000030000a4
:020000040000fa
:0401580000030000a0
:020000040000fa
:04015c00000300009c
:020000040000fa
:040160000003000098
:020000040000fa
:040164000003000094
:020000040000fa
:040168000003000090
:020000040000fa
:04016c00000300008c
:020000040000fa
:040170000003000088
:020000040000fa
:040174000003000084
:020000040000fa
:040178000003000080
:020000040000fa
:04017c00000300007c
:020000040000fa
:040180000003000078
:020000040000fa
:040184000003000074
:020000040000fa
:040188000003000070
:020000040000fa
:04018c00000300006c
:020000040000fa
:040190000003000068
:020000040000fa
:040194000003000064
:020000040000fa
:040198000003000060
:020000040000fa
:04019c00000300005c
:020000040000fa
:0401a0000003000058
:020000040000fa
:0401a4000003000054
:020000040000fa
:0401a8000003000050
:020000040000fa
:0401ac00000300004c
:020000040000fa
:0401b0000003000048
:020000040000fa
:0401b4000003000044
:020000040000fa
:0401b8000003000040
:020000040000fa
:0401bc00000300003c
:020000040000fa
:0401c0000003000038
:020000040000fa
:0401c4000003000034
:020000040000fa
:0401c8000003000030
:020000040000fa
:0401cc00000300002c
:020000040000fa
:0401d0000003000028
:020000040000fa
:0401d4000003000024
:020000040000fa
:0401d8000003000020
:020000040000fa
:0401dc00000300001c
:020000040000fa
:0401e0000003000018
:020000040000fa
:0401e4000003000014
:020000040000fa
:0401e8000003000010
:020000040000fa
:0401ec00000300000c
:020000040000fa
:0401f0000003000008
:020000040000fa
:0401f4000003000004
:020000040000fa
:0401f8000003000000
:020000040000fa
:0401fc0000030000fc
:020000040000fa
:0402080000030000ef
:020000040000fa
:04020c0000030000eb
:020000040000fa
:0402100000030000e7
:020000040000fa
:0402140000030000e3
:020000040000fa
:0402180000030000df
:020000040000fa
:04021c0000030000db
:020000040000fa
:0402200000030000d7
:020000040000fa
:0402240000030000d3
:020000040000fa
:0402280000030000cf
:020000040000fa
:04022c0000030000cb
:020000040000fa
:0402300000030000c7
:020000040000fa
:0402340000030000c3
:020000040000fa
:0402380000030000bf
:020000040000fa
:04023c0000030000bb
:020000040000fa
:0402400000030000b7
:020000040000fa
:0402440000030000b3
:020000040000fa
:0402480000030000af
:020000040000fa
:04024c0000030000ab
:020000040000fa
:0402500000030000a7
:020000040000fa
:0402540000030000a3
:020000040000fa
:04025800000300009f
:020000040000fa
:04025c00000300009b
:020000040000fa
:040260000003000097
:020000040000fa
:040264000003000093
:020000040000fa
:04026800000300008f
:020000040000fa
:04026c00000300008b
:020000040000fa
:040270000003000087
:020000040000fa
:040274000003000083
:020000040000fa
:04027800000300007f
:020000040000fa
:04027c00000300007b
:020000040000fa
:040280000003000077
:020000040000fa
:040284000003000073
:020000040000fa
:04028800000300006f
:020000040000fa
:04028c00000300006b
:020000040000fa
:040290000003000067
:020000040000fa
:040294000003000063
:020000040000fa
:04029800000300005f
:020000040000fa
:04029c00000300005b
:020000040000fa
:0402a0000003000057
:020000040000fa
:0402a4000003000053
:020000040000fa
:0402a800000300004f
:020000040000fa
:0402ac00000300004b
:020000040000fa
:0402b0000003000047
:020000040000fa
:0402b4000003000043
:020000040000fa
:0402b800000300003f
:020000040000fa
:0402bc00000300003b
:020000040000fa
:0402c0000003000037
:020000040000fa
:0402c4000003000033
:020000040000fa
:0402c800000300002f
:020000040000fa
:0402cc00000300002b
:020000040000fa
:0402d0000003000027
:020000040000fa
:0402d4000003000023
:020000040000fa
:0402d800000300001f
:020000040000fa
:0402dc00000300001b
:020000040000fa
:0402e0000003000017
:020000040000fa
:0402e4000003000013
:020000040000fa
:0402e800000300000f
:020000040000fa
:0402ec00000300000b
:020000040000fa
:0402f0000003000007
:020000040000fa
:0402f4000003000003
:020000040000fa
:0402f80000030000ff
:020000040000fa
:0402fc0000030000fb
:020000040000fa
:0403000000030000f6
:020000040000fa
:0403040000030000f2
:020000040000fa
:0403080000030000ee
:020000040000fa
:04030c0000030000ea
:020000040000fa
:0403100000030000e6
:020000040000fa
:0403140000030000e2
:020000040000fa
:0403180000030000de
:020000040000fa
:04031c0000030000da
:020000040000fa
:0403200000030000d6
:020000040000fa
:0403240000030000d2
:020000040000fa
:0403280000030000ce
:020000040000fa
:04032c0000030000ca
:020000040000fa
:0403300000030000c6
:020000040000fa
:0403340000030000c2
:020000040000fa
:0403380000030000be
:020000040000fa
:04033c0000030000ba
:020000040000fa
:0403400000030000b6
:020000040000fa
:0403440000030000b2
:020000040000fa
:0403480000030000ae
:020000040000fa
:04034c0000030000aa
:020000040000fa
:0403500000030000a6
:020000040000fa
:0403540000030000a2
:020000040000fa
:04035800000300009e
:020000040000fa
:04035c00000300009a
:020000040000fa
:040360000003000096
:020000040000fa
:040364000003000092
:020000040000fa
:04036800000300008e
:020000040000fa
:04036c00000300008a
:020000040000fa
:040370000003000086
:020000040000fa
:040374000003000082
:020000040000fa
:04037800000300007e
:020000040000fa
:04037c00000300007a
:020000040000fa
:040380000003000076
:020000040000fa
:040384000003000072
:020000040000fa
:04038800000300006e
:020000040000fa
:04038c00000300006a
:020000040000fa
:040390000003000066
:020000040000fa
:040394000003000062
:020000040000fa
:04039800000300005e
:020000040000fa
:04039c00000300005a
:020000040000fa
:0403a0000003000056
:020000040000fa
:0403a4000003000052
:020000040000fa
:0403a800000300004e
:020000040000fa
:0403ac00000300004a
:020000040000fa
:0403b0000003000046
:020000040000fa
:0403b4000003000042
:020000040000fa
:0403b800000300003e
:020000040000fa
:0403bc00000300003a
:020000040000fa
:0403c0000003000036
:020000040000fa
:0403c4000003000032
:020000040000fa
:0403c800000300002e
:020000040000fa
:0403cc00000300002a
:020000040000fa
:0403d0000003000026
:020000040000fa
:0403d4000003000022
:020000040000fa
:0403d800000300001e
:020000040000fa
:0403dc00000300001a
:020000040000fa
:0403e0000003000016
:020000040000fa
:0403e4000003000012
:020000040000fa
:0403e800000300000e
:020000040000fa
:0403ec00000300000a
:020000040000fa
:0403f0000003000006
:020000040000fa
:0403f4000003000002
:020000040000fa
:0403f80000030000fe
:020000040000fa
:0403fc0000030000fa
:020000040000fa
:100400002f9220000e7f22000e01880000000000c5
:10041000000020000000e000020032000001200087
:10042000200288000c00070020332100010020007a
:100430000f000700000020000000e0000200320072
:1004400000000200000000005c1402000000000038
:100450000040da000000fe00802320000000e000e1
:1004600002003200002020009001880000000600f9
:10047000a1028800800078000000eb001a0037001d
:10048000e280400054a0b4009101ba00e280400034
:1004900054a0b4009102ba00e280400054a0b4001d
:1004a0000002eb00472bde00f507b200a601880032
:1004b000602ce10008003a000049eb000201e8006e
:1004c000020039003420ec0002f0a0008301e900b2
:1004d000f9ff3e00040037006128e100010032000e
:1004e0000082eb000b00070011c3ba001101ba0033
:1004f0000604e00003003a000200e000e0ff3a00da
:1005000000000600f607b200a6028800820078000c
:10051000f5ff370004d0a300e20f49001c003900aa
:10052000810278003549ba000201e8000200390072
:100530003420ec0002f0a0008301e9000f0032003b
:100540002549ba000201e800020039003420ec001d
:1005500002f0a0008301e900080032000400e0007e
:100560000600320015c9ba000201e8000200390095
:100570003420ec0002f0a0008301e9008180e80053
:1005800054a0b4000300e000e2ff3a0000000600bf
:100590009102ba00055978008301e900f7ff3200a3
:1005a000c82ade00055978008301e900f3ff320014
:1005b0000400e000f1ff320011d9ba00eeff37006d
:1005c000cc05040000000000e40504000000000069
:1005d000240804000000000074060400000000006d
:1005e000040704000000000094070400000000005d
:1005f0004a050400000000009a12040000000000f8
:100600000040da000000fe008001780002003700a0
:10061000b15978000201e9000200e000fcff3a0055
:0406200000000600d0
:020000040000fa
:1006240000010000020200000303000003030000b5
:100634000404000004040000040400000404000096
:10064400050500000505000005050000050500007e
:10065400050500000505000005050000050500006e
:100664000606000006060000060600000606000056
:100674000606000006060000060600000606000046
:100684000606000006060000060600000606000036
:100694000606000006060000060600000606000026
:1006a400070700000707000007070000070700000e
:1006b40007070000070700000707000007070000fe
:1006c40007070000070700000707000007070000ee
:1006d40007070000070700000707000007070000de
:1006e40007070000070700000707000007070000ce
:1006f40007070000070700000707000007070000be
:1007040007070000070700000707000007070000ad
:10071400070700000707000007070000070700009d
:100724000808000008080000080800000808000085
:100734000808000008080000080800000808000075
:100744000808000008080000080800000808000065
:100754000808000008080000080800000808000055
:100764000808000008080000080800000808000045
:100774000808000008080000080800000808000035
:100784000808000008080000080800000808000025
:100794000808000008080000080800000808000015
:1007a4000808000008080000080800000808000005
:1007b40008080000080800000808000008080000f5
:1007c40008080000080800000808000008080000e5
:1007d40008080000080800000808000008080000d5
:1007e40008080000080800000808000008080000c5
:1007f40008080000080800000808000008080000b5
:1008040008080000080800000808000008080000a4
:100814000808000008080000080800000808000094
:1008240053650000672000006f6e000065730000d0
:100834002069000073200000656e000074650000ec
:10084400726900006e6700002e2e00002e0000006a
:100854005365000067200000746500006e7300009b
:100864002069000073200000656e000074650000bc
:10087400726900006e6700002e2e00002e0000003a
:100884005365000067200000687500006e73000067
:100894002069000073200000656e0000746500008c
:1008a400726900006e6700002e2e00002e0000000a
:1008b4005365000067200000746800006f73000037
:1008c4002069000073200000656e0000746500005c
:1008d400726900006e6700002e2e00002e000000da
:1008e40053650000672000006f6e00006573000010
:1008f400206900007320000065780000697400001e
:10090400696e0000672e00002e2e000000530000c8
:100914006567000020740000656e0000732000000d
:1009240069730000206500007869000074690000a4
:100934006e6700002e2e00002e000000536500009c
:1009440067200000687500006e73000020690000d5
:10095400732000006578000069740000696e00006f
:10096400672e00002e2e0000005300006567000073
:1009740020740000686f0000732000006973000099
:100984002065000078690000746900006e6700004b
:100994002e2e00002e000000436f0000756e000034
:1009a4007465000072200000697300002069000073
:1009b4006e69000074690000616c0000697a0000cf
:1009c400656400002e2e00002e000000436f00001e
:1009d400756e0000746500007220000069730000e9
:1009e400206300006f7500006e740000696e0000e3
:1009f400672e00002e2e000000560000616c0000df
:100a040075650000206f000066200000636f000021
:100a1400756e0000746500007220000069730000a8
:100a240020640000656300007265000061730000cb
:100a3400656400002e2e00002e00000056610000a8
:100a44006c750000652000006f66000020630000e4
:100a54006f7500006e74000065720000206900006c
:100a640073200000696e000063720000656100007d
:100a740073650000642e00002e2e000000000000ac
:100a8400000000000100000002000000030000005c
:020000040000fa
:100a94000400fa00008fbe001e4078000080fb00b6
:100aa400ec0f500015003200ec0f500005003c0024
:100ab400ea0f500008003200eb0f50002000320013
:100ac40025003700ed0f500012003200ee0f5000e9
:100ad40016003200200037008000eb00608a2000fe
:100ae40079010700608a2000230007008000eb00e2
:100af400608a20000f0707001d003700c0c0b30044
:100b040020e8b70001822000608a2000180707004f
:100b140017003700d0c0b30020e8b70001822000de
:100b2400608a200012070700110037001e009000a1
:100b340080007800608a2000630107000c00370001
:100b4400b0c0b30020e8b70001822000608a200012
:100b54000707070006003700c0c0b30020e8b7004d
:100b640001822000608a20000107070000000000c5
:100b74000080fa00000006000200fa00000f78006e
:100b8400c15c20001e007800010878000080fa0093
:100b9400000006000400fa00000f78001107980016
:100ba4001e007800e1c1b300214098001e007800c7
:100bb400415e20000108780020c0b3000080fa00e4
:100bc400000006000400fa00000f780011079800e6
:100bd4001e009000104078000080fb00e20f5000df
:100be40014003200e20f500003003c00e10f5000fb
:100bf4000600320038003700eb0f5000310032009d
:100c0400ec0f50002a00320033003700820120002c
:100c140021412800e08a20007afe07001e007800a7
:100c240030409000bb0107008de1a9000040eb00bb
:100c34002a0037007201200021472800e08a2000a2
:100c440070fe0700c10c8000e0032000010070006a
:100c5400b00c8800210c8000c01820000100700036
:100c6400100c8800710c800000802a0001007000c4
:100c7400600c8800050037001e00780020409000ba
:100c84008040e9001e007800214098001e00780092
:100c9400204090000004e000f7ff3a001e007800b6
:100ca400e1c1b300214098000040eb000b00370085
:100cb4001e007800418220000108780020c0b300a3
:100cc400060037001e007800416720000108780004
:100cd40020c0b3000100370010c0b3000080fa0048
:100ce400000006000400fa00000f780011079800c5
:100cf4001e009000104078000080fb00e20f5000be
:100d040014003200e20f500003003c00e10f5000d9
:100d14000600320038003700eb0f5000310032007b
:100d2400ec0f50002a00320033003700820120000b
:100d3400a1422800e08a200032fe07001e0078004d
:100d4400404090007301070082e1a9000040eb00dd
:100d54002a0037007201200091482800e08a200010
:100d640028fe0700c10c8000e00320000100700091
:100d7400b00c8800210c8000c01820000100700015
:100d8400100c8800710c800000802a0001007000a3
:100d9400600c8800050037001e0078002040900099
:100da4008040e9001e007800214098001e00780071
:100db400204090000004e000f7ff3a001e00780095
:100dc400e1c1b300214098000040eb000b00370064
:100dd4001e007800418220000108780020c0b30082
:100de400060037001e0078004170200001087800da
:100df40020c0b3000100370010c0b3000080fa0027
:100e0400000006000400fa00000f780011079800a3
:100e14001e009000104078000080fb00e20f50009c
:100e240014003200e20f500003003c00e10f5000b8
:100e34000600320038003700eb0f5000310032005a
:100e4400ec0f50002a0032003300370082012000ea
:100e540021442800e08a2000eafd07001e007800f3
:100e6400504090002b0107008da1a9000040eb0029
:100e74002a00370072012000014a2800e08a20007d
:100e8400e0fd0700c10c8000e003200001007000b9
:100e9400b00c8800210c8000c018200001007000f4
:100ea400100c8800710c800000802a000100700082
:100eb400600c8800050037001e0078002040900078
:100ec4008040e9001e007800214098001e00780050
:100ed400204090000004e000f7ff3a001e00780074
:100ee400e1c1b300214098000040eb000b00370043
:100ef4001e007800418220000108780020c0b30061
:100f0400060037001e0078004179200001087800af
:100f140020c0b3000100370010c0b3000080fa0005
:100f2400000006000400fa00000f78001107980082
:100f34001e009000104078000080fb00e20f50007b
:100f440014003200e20f500003003c00e10f500097
:100f54000600320038003700eb0f50003100320039
:100f6400ec0f50002a0032003300370082012000c9
:100f7400a1452800e08a2000a2fd07001e00780099
:100f840060409000e30007008d61a9000040eb0081
:100f94002a00370072012000714b2800e08a2000eb
:100fa40098fd0700c10c8000e003200001007000e0
:100fb400b00c8800210c8000c018200001007000d3
:100fc400100c8800710c800000802a000100700061
:100fd400600c8800050037001e0078002040900057
:100fe4008040e9001e007800214098001e0078002f
:100ff400204090000004e000f7ff3a001e00780053
:10100400e1c1b300214098000040eb000b00370021
:101014001e007800418220000108780020c0b3003f
:10102400060037001e007800415e200001087800a9
:1010340020c0b3000100370010c0b3000080fa00e4
:10104400000006000400fa00000f78001107980061
:101054001e009000104078000080fb00e10f50005b
:1010640003003200ed0f50000f0032001300370070
:10107400c10c8000e003200001007000b00c880067
:10108400210c8000c018200001007000100c8800a2
:10109400710c800000802a0001007000600c880040
:1010a4000040eb00060037001e007800415e20007f
:1010b4000108780020c0b3000100370010c0b3005d
:1010c4000080fa00000006001400fa00000f9800e7
:1010d400110f9800ea004700020009008018eb0095
:1010e40030002000200798008e08900031079800f7
:1010f4000000eb00000f78006e003700f1002000c4
:101104001e805000110020000008dd0080007800df
:101114001e0890000080600000f0a7000000ea00b4
:101124000000ea004f00de0040079800ae00900087
:101134001107980017003700ea0047001e009000ce
:101144000080400010407800804078006a01470029
:101154001e0090000000410010407800e44f500051
:101164000200340030c0b300010037000040eb003f
:1011740000c04000804078006a0147001e009000d3
:1011840000004100014878001e0090000000e800c3
:10119400100798001e009000e40f5000e6ff340092
:1011a400ea0047002e0090000080400010407800c4
:1011b400e74f5000030034002e0090000000e900c7
:1011c40020079800ae00900011079800280037000f
:1011d400ea0047001e0090000080400010407800a4
:1011e4000000fb0000004000804078006a014700d6
:1011f4001e0090000000410001487800ea0047000a
:101204001e0090000080400010407800ef40600015
:101214006a0147001e009000000041000148780068
:10122400ea0047001e0090000080400090407800d3
:101234001e0090000000e8000000470020499000d4
:1012440010c0b300e74f510001003c000040eb0028
:1012540080c070006a0147001e0090000000410039
:10126400014878001e0090000000e8001007980074
:101274001e009000e30f5000d5ff34006e4890002c
:101284000000fb000000400000407800604f980020
:101294006e4890006f406000604f9800ee489000e8
:1012a4004e0090000040780000c07000604f98002d
:1012b4001e0fe8001e007800ef0f50008fff34006f
:1012c4000000eb00100798000d0037001e0090008e
:1012d40063004000be009000008040009e0090002b
:1012e400e480100081004700a14890000143b00051
:1012f400014878001e0090000000e80010079800e4
:101304001e009000e40f5000f0ff34000080fa004b
:10131400000006000200fa00004f78001e00fb00e7
:101324006101b90000fd2f00f1ff2f000200400011
:10133400838048002204200003002000820f500014
:10134400838f5800bc003e0000600100420037005b
:101354004b003700540037005d003700660037004b
:101364006f00370078003700810037008a003700ab
:1013740093003700b0003700af003700ae003700ed
:10138400ad003700ac003700ab003700aa003700cf
:10139400a9003700a8003700a7003700a6003700cf
:1013a40091003700a4003700a3003700a2003700e3
:1013b400a1003700a00037009f0037009e003700cf
:1013c4009d0037009c0037009b0037009a003700cf
:1013d40099003700980037009700370096003700cf
:1013e40095003700940037009300370092003700cf
:1013f40091003700900037008f0037008e003700cf
:101404008d0037008c0037008b0037008a003700ce
:1014140089003700880037008700370086003700ce
:1014240085003700840037008300370082003700ce
:1014340081003700800037007f0037007e003700ce
:101444007d0037007c0037007b0037007a003700ce
:10145400790037006e003700b10c800010ff2f00b8
:1014640000806000b00c8800110c800030ef2f0069
:1014740000806000100c88000000eb00770037004b
:10148400b10c8000b0ff2f0000806000b00c880019
:10149400110c800070ff2f0000806000100c880089
:1014a4000000eb006d003700b10c800050fe2f00ef
:1014b40000806000b00c8800110c800070ef2f00d9
:1014c40000806000100c88000000eb00630037000f
:1014d400b10c800010fe2f0000806000b00c88006a
:1014e400110c800070ff2f0000806000100c880039
:1014f4000000eb0059003700b10c8000b0fe2f0053
:1015040000806000b00c8800110c800030ff2f00b8
:1015140000806000100c88000000eb004f003700d2
:10152400b10c800010fe2f0000806000b00c880019
:10153400110c8000b0ff2f0000806000100c8800a8
:101544000000eb0045003700b10c800010fe2f00b6
:1015540000806000b00c8800110c8000b0ef2f00f8
:1015640000806000100c88000000eb003b00370096
:10157400b10c800090ff2f0000806000b00c880048
:10158400110c800070ff2f0000806000100c880098
:101594000000eb0031003700b10c800010fe2f007a
:1015a40000806000b00c8800110c800030ef2f0028
:1015b40000806000100c88000000eb00270037005a
:1015c400b10c800090fe2f0000806000b00c8800f9
:1015d400110c800030ff2f0000806000100c880088
:1015e4000000eb001d003700b10c800050fe2f00fe
:1015f40000806000b00c8800110c8000b0ef2f0058
:1016040000806000100c88000000eb00130037001d
:10161400b10c8000f0fe2f0000806000b00c880048
:10162400110c8000f0ef2f0000806000100c880087
:101634000000eb0009003700b10c800010ff2f0000
:1016440000806000b00c8800110c800030ef2f0087
:1016540000806000100c88000080eb000080fa001d
:10166400000006000000fa0000802000a190200085
:101674001100980000802000a1902000010878004b
:1016840001802000210090000010a000a00098001c
:1016940001802000210090000000a100a00098001b
:1016a400008020008040eb00614098002001200071
:1016b400f01688000000280000178800e422ef00dc
:1016c4008620a9009620a8000080fa0000000600e9
:1016d4000200fa0000802000e0409000014f7800f2
:1016e4001e4078000080fa00000006003600f80072
:1016f400809fbe00829fbe00849fbe00869fbe0066
:101704000000fa008620a9002117800000082000ac
:10171400008060000000e00008003200e4e2a9005c
:101724000828ef0070408000200090008000eb004b
:10173400010878000e28ef000d01370040408000ba
:101744008000eb00b200200003002000820f500054
:10175400838f5800fc003e00006001000b0037003e
:1017640039003700750037009c003700f30037005c
:10177400c8003700d9003700f0003700db0037001d
:10178400f10037003400370050003700008020009b
:1017940020009000620060000000e000f3003a00c6
:1017a400008020001000900070408800008020001d
:1017b40010009000104078000ae8b7000080200074
:1017c400100090001000900060408800008020000d
:1017d40010009000e60040000080200011009800f6
:1017e400008020009000900000912000808f500025
:1017f40003003a0000802000a1902000110098000e
:1018040001802000210090000000a100a0009800a9
:1018140000802000900090000080200010007800dc
:10182400808f500004003a000180200021009000c5
:101834000010a000a0009800e002a80020002000f2
:1018440040408800ca003700e022a80020002000a1
:1018540040408800c600370021178000000028009f
:10186400008060000000e0000800320000802000da
:10187400604090008040e8000080200061409800b3
:1018840040002000d2000700b900370080408000eb
:101894008000d100f00f200000806000e016880076
:1018a4008040800061006000004078000004e00097
:1018b40003003200b000200040408800ac00370034
:1018c4003000200040408800a90037002117800024
:1018d40000002800008060000000e00008003200e2
:1018e40000802000604090008040e80000802000dc
:1018f4006140980040002000b50007009c003700bc
:10190400e022a800804080004800de00e60060007d
:10191400000f20000100700080408800804080009b
:101924000000a0008040880010c0b30012e8b70097
:1019340020002000404088008d00370012c8bf00fe
:10194400e14f50000a00320060408000100078002f
:10195400804088006040800020009000a040880003
:10196400604080002040900016e8b7000100370076
:101974001268ef0081408000f00f2000808f50003b
:1019840009003600804080004800de00e600600068
:10199400000f200001007000e0168800a000200065
:1019a400404088007200370080408000e0168800c4
:1019b4008040800061006000004078000004e00086
:1019c40003003200500020004040880068003700c7
:1019d4003000200040408800650037002117800057
:1019e40000002800008060000000e00009003200d0
:1019f40000802000604090008040e80000802000cb
:101a040061409800e5e2a900500020007000070042
:101a14005700370016c8bf008080fb008100e90032
:101a2400cf08de00814078000040e90016e8b700e6
:101a34000104e000100032006040800066004000b5
:101a4400604088000ac8bf000040e9000ae8b70007
:101a54000ac8bf000004e00003003a002000200090
:101a64005b00070042003700e022a80020002000ad
:101a7400404088003e003700a0408000904078003d
:101a84008180fb00e11688000000e800a040880087
:101a94003700370021178000000028000080600014
:101aa4000000e00009003200008020006040900047
:101ab4008040e80000802000614098004000200041
:101ac40043000700e5e2a90029003700e062a8000e
:101ad400800020004040880025003700800020005e
:101ae40040408800e062a80021003700a040800048
:101af400d116800081407800014878000000e80099
:101b0400a040880016c8bf000040e90016e8b700ee
:101b140016c8bf000004e00004003200e0a2a900df
:101b2400600020004040880002003700e0a2a800c6
:101b340016000700e082a8000d00370020002000f6
:101b4400230007000a003700008020006040900056
:101b54008040e80000802000614098006000200080
:101b64001b00070000000000010037000000000017
:101b74000080fa004f03be004f02be004f01be00ba
:101b84004f00be003600f900004006000000fa00d5
:101b94006040800066004000604088000ac8bf00c2
:101ba4000040e9000ae8b7000ac8bf000004e000ea
:101bb40003003a0040002000404088000200370043
:101bc40010002000404088000080fa000000060059
:101bd4000200fa00000f7800e042a8007040800084
:101be400200090000000e0000300320070408000fc
:101bf400200090001e0878000828ef000080fa00fa
:101c0400000006000800fa00000f78002147980041
:101c140022079800330798000080200020009000dd
:101c2400610060000000e0000a003a00ae0190008c
:101c34002e4190009e0078006091200077000700fc
:101c44003e0190006191200010c0b3001f00070006
:101c5400030037003e0090008000eb00010878008c
:101c64000080fa00000006000800fa00000f780067
:101c7400214798002207980033079800008020002d
:101c840020009000610060000000e0000a003a00bb
:101c9400ae0190002e4190009e007800009120003b
:101ca400460007003e0190000191200010c0b300df
:101cb40006000700030037003e0090008000eb00a0
:101cc400010878000080fa00000006000600fa000f
:101cd400004f780011079800220798000080200028
:101ce40020009000610060000000e0002e003a0037
:101cf4002e009000110020000108780000802000d0
:101d0400100078009e0090001100980000802000d0
:101d1400100078001e487800008020001000780031
:101d2400ae00900021009800008020001000780090
:101d3400e6004000008020000108780000802000b8
:101d44009000780000912000808f500003003a003a
:101d540000802000a190200001087800018020006c
:101d6400210090000010a100a00098000080200035
:101d7400900090000080200010007800808f5000b8
:101d840004003a0001802000210090000000a0001f
:101d9400a0009800404080000000e00005003a00e8
:101da4008620a800030037002e0090008000eb007e
:101db400010878000080fa00000006000800fa001c
:101dc400000f7800110798004247980033079800e5
:101dd4003e00900000004000800078001e00780063
:101de400010878001e007800100078008000780058
:101df4000100a0001e007800010878001e00780091
:101e0400ce409000214098001e0078009e00900073
:101e1400210098000080fa00000006000800fa0083
:101e2400000f780011079800424798003307980084
:101e34003e00900000004000800078001e00780002
:101e4400010878001e007800ce40900021409800e0
:101e54001e0078009e009000210098000080fa0087
:101e6400000006000000fa0000802000200090001e
:101e74000000d100614060000080fb0000f0a7007a
:101e84000000ea000000ea004f00de000040780095
:101e94000080fa00000006000000fa000080200024
:101ea40020009000614060000080fb0000f0a7006b
:101eb4000000ea000000ea004f00de000040780065
:101ec4000080fa00000006001000fa0030079800b5
:101ed400014f980052079800434f9800544f9800c0
:101ee400750798000e4890000080fb000000e90090
:101ef4006a00b90080007800e0822000008f400072
:101f04001e007800be009000010878001e007800d2
:101f1400de009000110098001e007800ce4890006a
:101f2400414098001e0078008040eb00514098002a
:101f34001e0078008040eb00614098001e0078008d
:101f44008040eb00714098000e4890000080fb0038
:101f54000000e900110020000008dd008040780046
:101f64001e00780001489800de4890002147980040
:101f7400fe009000210798001e00780010017800f0
:101f84001e009000ae009000020001000080fa00e4
:101f9400000006000000fa008c020700ff3ffc006e
:101fa4002668ef006a0007000000fc008a020700b0
:101fb400feff37000600fa002047980031479800da
:101fc400220798002e4090000080fb000000e900ea
:101fd4006a00b90080007800e0822000008f400091
:101fe400ff3ffc001e007800f04090001e007800c7
:101ff4004040900080cf5000320031001e00780035
:10200400900090001e007800504090000080fb007b
:102014004200dd0000804000be409000014878008e
:102024001e007800900090001e0078005040900040
:102034000080fb004200dd0000804000ae00900004
:10204400110098001e007800504090008040e80085
:102054001e007800514098001e007800d040900087
:102064001e0078004040900080cf500003003a00ea
:102074001e0078008040eb00514098001e0078005c
:10208400704090008040e8001e0078007140980085
:102094001e00780070409000e14f500006003a00a6
:1020a4001e0078008048900028c8bf0000c070005f
:1020b40028e8b700260007000000fc0010c0b300a9
:1020c400020037000000fc000040eb000080fa0032
:1020d400000006000400fa0020479800ff3ffc00bf
:1020e4006182200091407800014f780026c8bf002b
:1020f400ae40900080cf500003003600ae40900008
:1021040062822000014978000000fc001e40780033
:102114000080fa00000006000200fa00004f780078
:10212400ff3ffc0026c8bf009e40780080cf5000cf
:10213400040031001e41780061822000824878004a
:10214400030007000000fc000080fa000000060005
:102154000800fa006182200091407800014f780065
:10216400390037001e4090000080fb000000e900a9
:102174006a00b90080007800e082200000804000fe
:10218400100798001e009000900090001e00900020
:10219400604090000080fb004200dd0000804000b1
:1021a4001001be0022079800330798001e0090001b
:1021b400604090008040e8001e009000614098005c
:1021c4001e009000e04090001e00900040409000ef
:1021d40080cf500003003a001e0090008040eb00c6
:1021e400614098001e009000704090008040e9001b
:1021f4001e009000714098001e00900070409000f6
:102204000004e00006003a001e0090000048900020
:1022140080c0ea0028c8bf0000c0600028e8b700fa
:102224009e40900063822000814978000000fc00f9
:102234001e009000100178002e009000be00900057
:1022440002000100ff3ffc0028c8bf000080fb0023
:102254002131280061417800124798001e40900007
:102264009e4f5000bfff3e009e40780063822000d6
:10227400814978000080fa00000006000000fa009e
:102284004c22ef0000e224007012880000002800b5
:10229400801288008460a9009460a8000092200045
:1022a4008040eb00014878000080fa00000006003e
:1022b4003600f800809fbe00829fbe00849fbe004f
:1022c400869fbe000000fa002a000700109220003a
:1022d400104078008040e800109220000148780007
:1022e4000092200011c0b300014878008460a90066
:1022f4000080fa004f03be004f02be004f01be0033
:102304004f00be003600f900004006000200fa004b
:10231400000f78009e00780071128800009220005f
:102324008040eb00014878000080fa0000000600bd
:102334000000fa00701280000080fa00000006001d
:102344000200fa00000f78009e00780061128800f5
:10235400009220008040eb00014878000080fa00e1
:10236400000006000000fa00601280000080fa00fd
:10237400000006000400fa000001eb00b1c0b30045
:1023840030c0b3000bff0700004f7800c04080004e
:102394000000e800c0408800c1408000700c2000ac
:1023a400808f5000060036001828ef000001eb0073
:1023b40051c1b30010c0b300fefe0700004f780007
:1023c400b10c8000003020000080600010079800ed
:1023d400d0408000e10f50000e003200e10f5000a9
:1023e40003003900e20f50001d00320029003700bd
:1023f4009e00900000302000808f50001e003200ac
:102404009e009000e140880010002000d040880029
:1024140020003700f04080000000e800f040880011
:10242400f0408000e90f500015003600e1408000c4
:102434001e009000808f500013003a001e28ef0009
:102444000001eb0061c1b30010c0b300d9fe070066
:10245400004f780020002000d04088000d00370095
:10246400e14080001e009000808f50000800320080
:102474001a28ef00070037000000000005003700ad
:1024840000000000030037000000000001003700d6
:10249400000000000080fa00000006000000fa00be
:1024a400009220008040eb00014878009460a8006e
:1024b40051e2a8000080fa00000006000000fa00c3
:1024c40051e2a9009460a9000080fa00000006000f
:1024d4000200fa0000922000104f78001e4078009d
:1024e4000004e00003003200009220008040eb0072
:1024f400014878001e4078000080fa0000000600c1
:102504000000fa0010922000104078000080fb00c8
:102514000080fa00000006000000fa00109220007b
:102524008040eb00014878000080fa0000000600bb
:102534000400fa00008fbe001e4078000080fb00fb
:10254400f50f500010003200f50f500003003c005e
:10255400f40f5000060032003f003700f60f500021
:102564001b003200f70f50002b0032003a003700f6
:102574002c28ef00a2012000e14c2800c08e20008e
:1025840020f8070034003700604180000000e800b4
:102594006041880061418000703e2000808f5000bf
:1025a400010036002c28ef00604180000001780013
:1025b400e1c0b30030c0b3007efe0700720120000a
:1025c400814e2800c08e20000ef80700220037003c
:1025d400604180006a0040006041880061418000e1
:1025e400703e2000808f5000010036002c28ef0040
:1025f4006041800000017800e1c0b30030c0b30046
:102604006cfe07001202200001522800c08e200038
:10261400fcf7070010003700604180000000e00074
:1026240008003200604180000000e9006041880039
:102634006041800000017800e1c0b30030c0b30005
:102644005cfe070012022000f14f2800c08e20001b
:10265400ecf70700000000000080fa00000006000c
:020000040000fa
:10266400a6080000260000008000000020080000ea
:102674000400000080000000cc08000020000000de
:102684008000000024080000020000008200000016
:10269400ffff00002009000002000000800000008d
:1026a4001808000008000000800000000a0900006b
:1026b4001200000080000000000800001800000064
:1026c400800000002e080000500000008000000080
:1026d400260800000200000082000000ff00000045
:1026e4002808000002000000800000002a08000002
:1026f40002000000800000001c090000040000002b
:10270400820000007d0a58002f0000007e080000af
:102714002800000080000000ec0800001e000000fb
:10272400800000002c08000002000000800000006f
:04273400001580000c
:020000040000fa
:102738000400fa00000f7800110798001e007800c6
:10274800100178009e0090001e0078000200010031
:102758001e00780010017800415428001e007800ff
:10276800020001000080fa00000006000800fa00dc
:1027780020079800310798002e009000100f78006d
:102788001e017800be0090002e009000020001009b
:10279800204798002e409000e24f500009003a0070
:1027a8001e017800615428002e00900002000100ec
:1027b8002e00900010017800415428002e0090004f
:1027c800020001000080fa00000006000000fa0084
:1027d8008421ef008e21ef009821ef0030002000c7
:1027e800000c8800f07e2500500c8800103c20006a
:1027f800a00c88005620ef005820ef005a20ef0068
:102808006e20ef007020ef007220ef00000820001b
:10281800300c880000802a00800c88009a21ef0084
:1028280030002000400c8800c0002500900c880073
:1028380010002000e00c88000080fa00000006006c
:10284800000f78009e00780021418800ffff3700c4
:102858000000fa00c08c200080077800408e20001d
:10286800000188000080fa00000006003600f80029
:102878008020a9000000eb00f1ff07003600f800f7
:10288800f3ff07008040a90010002000ecff0700bc
:102898003600f8008060a90020002000e8ff07004b
:1028a8003600f8008080a90030002000e4ff07000f
:1028b8000200fa00170007008002eb00a4c0b30072
:1028c80053c0b300e287200031c0b300a0542000f9
:1028d8007cfd07008002eb0044c1b30053c0b30085
:1028e8002289200011c0b300a029210075fd07002e
:1028f8008e0178001202200041c0b300c091200070
:10290800bffc0700a2fd07000080eb000080fa0072
:10291800000006000000fa00acff070015000700e1
:10292800040007004efb070053fe07000080fa0072
:10293800000006000000fa000001eb00600420001f
:102948007105200003102000804978008149780033
:102958008249780000002300100888000621ef0053
:102968006821ef006a21ef006c21ef000080fa0077
:10297800000006000000fa00600580000040a0008a
:102988000050a1000060a10060058800600580007b
:102998000000a0000010a1000020a1006005880030
:1029a8002005800000c0a00000d0a10000e0a10028
:1029b800200588000080fa00000006000000fa00e8
:1029c8000080fa00000006000000fa000080fa000b
:1029d800000006000000fa00504180000000e800f6
:1029e800504188000080fa00000006000000fa004c
:0829f8000080fa000000060057
:020000040000fa
:042a000000000000d2
:020000040000fa
:020000040002f8
:04aff000ffff00005f
:020000040000fa
:020000040002f8
:04aff400fffe00005c
:020000040000fa
:020000040002f8
:04aff8009f9700001f
:020000040000fa
:020000040002f8
:04affc003f3f0000d3
:00000001FF
